{
  "contractName": "MobuCrowdsale",
  "abi": [
    {
      "constant": true,
      "inputs": [
        {
          "name": "",
          "type": "address"
        }
      ],
      "name": "contributors",
      "outputs": [
        {
          "name": "",
          "type": "uint256"
        }
      ],
      "payable": false,
      "stateMutability": "view",
      "type": "function"
    },
    {
      "constant": true,
      "inputs": [],
      "name": "ICO_FINISH",
      "outputs": [
        {
          "name": "",
          "type": "uint256"
        }
      ],
      "payable": false,
      "stateMutability": "view",
      "type": "function"
    },
    {
      "constant": true,
      "inputs": [
        {
          "name": "",
          "type": "address"
        }
      ],
      "name": "whiteList",
      "outputs": [
        {
          "name": "",
          "type": "bool"
        }
      ],
      "payable": false,
      "stateMutability": "view",
      "type": "function"
    },
    {
      "constant": true,
      "inputs": [],
      "name": "distributionAddress",
      "outputs": [
        {
          "name": "",
          "type": "address"
        }
      ],
      "payable": false,
      "stateMutability": "view",
      "type": "function"
    },
    {
      "constant": true,
      "inputs": [],
      "name": "usdCollected",
      "outputs": [
        {
          "name": "",
          "type": "uint256"
        }
      ],
      "payable": false,
      "stateMutability": "view",
      "type": "function"
    },
    {
      "constant": false,
      "inputs": [],
      "name": "renounceOwnership",
      "outputs": [],
      "payable": false,
      "stateMutability": "nonpayable",
      "type": "function"
    },
    {
      "constant": true,
      "inputs": [],
      "name": "tokenPrice",
      "outputs": [
        {
          "name": "",
          "type": "uint256"
        }
      ],
      "payable": false,
      "stateMutability": "view",
      "type": "function"
    },
    {
      "constant": true,
      "inputs": [],
      "name": "owner",
      "outputs": [
        {
          "name": "",
          "type": "address"
        }
      ],
      "payable": false,
      "stateMutability": "view",
      "type": "function"
    },
    {
      "constant": true,
      "inputs": [],
      "name": "PRE_ICO_FINISH",
      "outputs": [
        {
          "name": "",
          "type": "uint256"
        }
      ],
      "payable": false,
      "stateMutability": "view",
      "type": "function"
    },
    {
      "constant": true,
      "inputs": [],
      "name": "icoMaxCap",
      "outputs": [
        {
          "name": "",
          "type": "uint256"
        }
      ],
      "payable": false,
      "stateMutability": "view",
      "type": "function"
    },
    {
      "constant": true,
      "inputs": [],
      "name": "ethCollected",
      "outputs": [
        {
          "name": "",
          "type": "uint256"
        }
      ],
      "payable": false,
      "stateMutability": "view",
      "type": "function"
    },
    {
      "constant": true,
      "inputs": [],
      "name": "ICO_START",
      "outputs": [
        {
          "name": "",
          "type": "uint256"
        }
      ],
      "payable": false,
      "stateMutability": "view",
      "type": "function"
    },
    {
      "constant": true,
      "inputs": [],
      "name": "PRE_ICO_START",
      "outputs": [
        {
          "name": "",
          "type": "uint256"
        }
      ],
      "payable": false,
      "stateMutability": "view",
      "type": "function"
    },
    {
      "constant": true,
      "inputs": [],
      "name": "PRE_ICO_MIN_INVEST",
      "outputs": [
        {
          "name": "",
          "type": "uint256"
        }
      ],
      "payable": false,
      "stateMutability": "view",
      "type": "function"
    },
    {
      "constant": false,
      "inputs": [
        {
          "name": "_newOwner",
          "type": "address"
        }
      ],
      "name": "transferOwnership",
      "outputs": [],
      "payable": false,
      "stateMutability": "nonpayable",
      "type": "function"
    },
    {
      "constant": true,
      "inputs": [],
      "name": "ICO_MIN_INVEST",
      "outputs": [
        {
          "name": "",
          "type": "uint256"
        }
      ],
      "payable": false,
      "stateMutability": "view",
      "type": "function"
    },
    {
      "constant": true,
      "inputs": [],
      "name": "currentRate",
      "outputs": [
        {
          "name": "",
          "type": "uint256"
        }
      ],
      "payable": false,
      "stateMutability": "view",
      "type": "function"
    },
    {
      "constant": true,
      "inputs": [],
      "name": "token",
      "outputs": [
        {
          "name": "",
          "type": "address"
        }
      ],
      "payable": false,
      "stateMutability": "view",
      "type": "function"
    },
    {
      "constant": true,
      "inputs": [],
      "name": "icoMinCap",
      "outputs": [
        {
          "name": "",
          "type": "uint256"
        }
      ],
      "payable": false,
      "stateMutability": "view",
      "type": "function"
    },
    {
      "inputs": [
        {
          "name": "_tokenAddress",
          "type": "address"
        },
        {
          "name": "_distributionAddress",
          "type": "address"
        }
      ],
      "payable": true,
      "stateMutability": "payable",
      "type": "constructor"
    },
    {
      "payable": true,
      "stateMutability": "payable",
      "type": "fallback"
    },
    {
      "anonymous": false,
      "inputs": [
        {
          "indexed": true,
          "name": "contributor",
          "type": "address"
        },
        {
          "indexed": true,
          "name": "etherValue",
          "type": "uint256"
        },
        {
          "indexed": false,
          "name": "tokenValue",
          "type": "uint256"
        }
      ],
      "name": "OnSuccessfullyBought",
      "type": "event"
    },
    {
      "anonymous": false,
      "inputs": [
        {
          "indexed": false,
          "name": "newRate",
          "type": "uint256"
        }
      ],
      "name": "OnRateChange",
      "type": "event"
    },
    {
      "anonymous": false,
      "inputs": [
        {
          "indexed": true,
          "name": "contributor",
          "type": "address"
        },
        {
          "indexed": false,
          "name": "etherValue",
          "type": "uint256"
        }
      ],
      "name": "Refund",
      "type": "event"
    },
    {
      "anonymous": false,
      "inputs": [
        {
          "indexed": true,
          "name": "previousOwner",
          "type": "address"
        }
      ],
      "name": "OwnershipRenounced",
      "type": "event"
    },
    {
      "anonymous": false,
      "inputs": [
        {
          "indexed": true,
          "name": "previousOwner",
          "type": "address"
        },
        {
          "indexed": true,
          "name": "newOwner",
          "type": "address"
        }
      ],
      "name": "OwnershipTransferred",
      "type": "event"
    },
    {
      "constant": false,
      "inputs": [
        {
          "name": "addresses",
          "type": "address[]"
        }
      ],
      "name": "addToWhiteList",
      "outputs": [],
      "payable": false,
      "stateMutability": "nonpayable",
      "type": "function"
    },
    {
      "constant": false,
      "inputs": [
        {
          "name": "addresses",
          "type": "address[]"
        }
      ],
      "name": "removeFromWhiteList",
      "outputs": [],
      "payable": false,
      "stateMutability": "nonpayable",
      "type": "function"
    },
    {
      "constant": true,
      "inputs": [
        {
          "name": "_time",
          "type": "uint256"
        }
      ],
      "name": "isActive",
      "outputs": [
        {
          "name": "",
          "type": "bool"
        }
      ],
      "payable": false,
      "stateMutability": "view",
      "type": "function"
    },
    {
      "constant": true,
      "inputs": [
        {
          "name": "_time",
          "type": "uint256"
        }
      ],
      "name": "isPreIco",
      "outputs": [
        {
          "name": "",
          "type": "bool"
        }
      ],
      "payable": false,
      "stateMutability": "view",
      "type": "function"
    },
    {
      "constant": true,
      "inputs": [
        {
          "name": "_time",
          "type": "uint256"
        }
      ],
      "name": "isIco",
      "outputs": [
        {
          "name": "",
          "type": "bool"
        }
      ],
      "payable": false,
      "stateMutability": "view",
      "type": "function"
    },
    {
      "constant": false,
      "inputs": [
        {
          "name": "_rate",
          "type": "uint256"
        }
      ],
      "name": "setCurrentRate",
      "outputs": [],
      "payable": false,
      "stateMutability": "nonpayable",
      "type": "function"
    },
    {
      "constant": false,
      "inputs": [],
      "name": "refund",
      "outputs": [],
      "payable": false,
      "stateMutability": "nonpayable",
      "type": "function"
    },
    {
      "constant": false,
      "inputs": [],
      "name": "returnTokens",
      "outputs": [],
      "payable": false,
      "stateMutability": "nonpayable",
      "type": "function"
    }
  ],
  "bytecode": "0x608060405260405160408061170d8339810180604052810190808051906020019092919080519060200190929190505050336000806101000a81548173ffffffffffffffffffffffffffffffffffffffff021916908373ffffffffffffffffffffffffffffffffffffffff16021790555081600960006101000a81548173ffffffffffffffffffffffffffffffffffffffff021916908373ffffffffffffffffffffffffffffffffffffffff16021790555061bc20600581905550600554620f42408115156100ca57fe5b046001819055506005546302160ec08115156100e257fe5b0460028190555080600860006101000a81548173ffffffffffffffffffffffffffffffffffffffff021916908373ffffffffffffffffffffffffffffffffffffffff16021790555050506115d28061013b6000396000f30060806040526004361061015f576000357c0100000000000000000000000000000000000000000000000000000000900463ffffffff1680630a1e71de1461018b5780630b5f2efd146101d05780631f6d4942146101fd5780632ce0b4f614610254578063372c12b11461027f57806337fb7e21146102da578063414b85e41461033157806347a1a2d614610376578063590e1ae3146103a1578063715018a6146103b8578063740d73f3146103cf5780637ff9b5961461040a57806382afd23b146104355780638da5cb5b1461047a578063a6024524146104d1578063b11560c5146104fc578063b7134feb14610537578063bee2e13414610562578063d0ca12ba1461058d578063d4810b61146105b8578063edcb7bd4146105e3578063f2fde38b1461060e578063f3fafc9f14610651578063f9718fc81461067c578063f9f8bdb714610693578063fc0c546a146106be578063fcb0339e14610715575b61016842610740565b151561017357600080fd5b61017e33344261079b565b151561018957600080fd5b005b34801561019757600080fd5b506101b660048036038101908080359060200190929190505050610a29565b604051808215151515815260200191505060405180910390f35b3480156101dc57600080fd5b506101fb60048036038101908080359060200190929190505050610a66565b005b34801561020957600080fd5b5061023e600480360381019080803573ffffffffffffffffffffffffffffffffffffffff169060200190929190505050610b2d565b6040518082815260200191505060405180910390f35b34801561026057600080fd5b50610269610b45565b6040518082815260200191505060405180910390f35b34801561028b57600080fd5b506102c0600480360381019080803573ffffffffffffffffffffffffffffffffffffffff169060200190929190505050610b4d565b604051808215151515815260200191505060405180910390f35b3480156102e657600080fd5b506102ef610b6d565b604051808273ffffffffffffffffffffffffffffffffffffffff1673ffffffffffffffffffffffffffffffffffffffff16815260200191505060405180910390f35b34801561033d57600080fd5b5061035c60048036038101908080359060200190929190505050610b93565b604051808215151515815260200191505060405180910390f35b34801561038257600080fd5b5061038b610bd0565b6040518082815260200191505060405180910390f35b3480156103ad57600080fd5b506103b6610bd6565b005b3480156103c457600080fd5b506103cd610d69565b005b3480156103db57600080fd5b50610408600480360381019080803590602001908201803590602001919091929391929390505050610e6b565b005b34801561041657600080fd5b5061041f610f6c565b6040518082815260200191505060405180910390f35b34801561044157600080fd5b5061046060048036038101908080359060200190929190505050610740565b604051808215151515815260200191505060405180910390f35b34801561048657600080fd5b5061048f610f71565b604051808273ffffffffffffffffffffffffffffffffffffffff1673ffffffffffffffffffffffffffffffffffffffff16815260200191505060405180910390f35b3480156104dd57600080fd5b506104e6610f96565b6040518082815260200191505060405180910390f35b34801561050857600080fd5b50610535600480360381019080803590602001908201803590602001919091929391929390505050610f9e565b005b34801561054357600080fd5b5061054c61109f565b6040518082815260200191505060405180910390f35b34801561056e57600080fd5b506105776110a5565b6040518082815260200191505060405180910390f35b34801561059957600080fd5b506105a26110ab565b6040518082815260200191505060405180910390f35b3480156105c457600080fd5b506105cd6110b3565b6040518082815260200191505060405180910390f35b3480156105ef57600080fd5b506105f86110bb565b6040518082815260200191505060405180910390f35b34801561061a57600080fd5b5061064f600480360381019080803573ffffffffffffffffffffffffffffffffffffffff1690602001909291905050506110c7565b005b34801561065d57600080fd5b5061066661112e565b6040518082815260200191505060405180910390f35b34801561068857600080fd5b5061069161113a565b005b34801561069f57600080fd5b506106a86113a4565b6040518082815260200191505060405180910390f35b3480156106ca57600080fd5b506106d36113aa565b604051808273ffffffffffffffffffffffffffffffffffffffff1673ffffffffffffffffffffffffffffffffffffffff16815260200191505060405180910390f35b34801561072157600080fd5b5061072a6113d0565b6040518082815260200191505060405180910390f35b60008082141561074e574291505b81635b8a71301080156107655750635b9ce6308211155b80610783575081635c0269b01080156107825750635c523a808211155b5b156107915760019050610796565b600090505b919050565b600080600f6107b5600554866113d690919063ffffffff16565b8115156107be57fe5b0490506107ca83610b93565b156107ef57670de0b6b3a764000084101515156107e657600080fd5b6107ee61140e565b5b6107f883610a29565b156108f15767016345785d8a0000841015151561081457600080fd5b6108298460035461149090919063ffffffff16565b60038190555060055460035481151561083e57fe5b0460048190555061089784600660008873ffffffffffffffffffffffffffffffffffffffff1673ffffffffffffffffffffffffffffffffffffffff1681526020019081526020016000205461149090919063ffffffff16565b600660008773ffffffffffffffffffffffffffffffffffffffff1673ffffffffffffffffffffffffffffffffffffffff168152602001908152602001600020819055506001546003541015156108f0576108ef61140e565b5b5b600960009054906101000a900473ffffffffffffffffffffffffffffffffffffffff1673ffffffffffffffffffffffffffffffffffffffff1663a9059cbb86836040518363ffffffff167c0100000000000000000000000000000000000000000000000000000000028152600401808373ffffffffffffffffffffffffffffffffffffffff1673ffffffffffffffffffffffffffffffffffffffff16815260200182815260200192505050600060405180830381600087803b1580156109b657600080fd5b505af11580156109ca573d6000803e3d6000fd5b50505050838573ffffffffffffffffffffffffffffffffffffffff167f9186272e078a6a25c3d678aeed6a606b96f61ffd5ac5ef57c3a19397e81b9e5b836040518082815260200191505060405180910390a360019150509392505050565b600080821415610a37574291505b81635c0269b0108015610a4e5750635c523a808211155b15610a5c5760019050610a61565b600090505b919050565b6000809054906101000a900473ffffffffffffffffffffffffffffffffffffffff1673ffffffffffffffffffffffffffffffffffffffff163373ffffffffffffffffffffffffffffffffffffffff16141515610ac157600080fd5b8060058190555080620f4240811515610ad657fe5b04600181905550806302160ec0811515610aec57fe5b046002819055507f87469e5fb935877599ff8b7b61d0837150ea5c21e82ba6379a09f80da757ce54816040518082815260200191505060405180910390a150565b60066020528060005260406000206000915090505481565b635c523a8081565b60076020528060005260406000206000915054906101000a900460ff1681565b600860009054906101000a900473ffffffffffffffffffffffffffffffffffffffff1681565b600080821415610ba1574291505b81635b8a7130108015610bb85750635b9ce6308211155b15610bc65760019050610bcb565b600090505b919050565b60045481565b6000635c523a8042111515610bea57600080fd5b600154600354101515610bfc57600080fd5b6000600660003373ffffffffffffffffffffffffffffffffffffffff1673ffffffffffffffffffffffffffffffffffffffff16815260200190815260200160002054111515610c4a57600080fd5b600660003373ffffffffffffffffffffffffffffffffffffffff1673ffffffffffffffffffffffffffffffffffffffff1681526020019081526020016000205490506000600660003373ffffffffffffffffffffffffffffffffffffffff1673ffffffffffffffffffffffffffffffffffffffff168152602001908152602001600020819055503373ffffffffffffffffffffffffffffffffffffffff166108fc829081150290604051600060405180830381858888f19350505050158015610d17573d6000803e3d6000fd5b503373ffffffffffffffffffffffffffffffffffffffff167fbb28353e4598c3b9199101a66e0989549b659a59a54d2c27fbb183f1932c8e6d826040518082815260200191505060405180910390a250565b6000809054906101000a900473ffffffffffffffffffffffffffffffffffffffff1673ffffffffffffffffffffffffffffffffffffffff163373ffffffffffffffffffffffffffffffffffffffff16141515610dc457600080fd5b6000809054906101000a900473ffffffffffffffffffffffffffffffffffffffff1673ffffffffffffffffffffffffffffffffffffffff167ff8df31144d9c2f0f6b59d69b8b98abd5459d07f2742c4df920b25aae33c6482060405160405180910390a260008060006101000a81548173ffffffffffffffffffffffffffffffffffffffff021916908373ffffffffffffffffffffffffffffffffffffffff160217905550565b60008060009054906101000a900473ffffffffffffffffffffffffffffffffffffffff1673ffffffffffffffffffffffffffffffffffffffff163373ffffffffffffffffffffffffffffffffffffffff16141515610ec857600080fd5b600090505b82829050811015610f67576001600760008585858181101515610eec57fe5b9050602002013573ffffffffffffffffffffffffffffffffffffffff1673ffffffffffffffffffffffffffffffffffffffff1673ffffffffffffffffffffffffffffffffffffffff16815260200190815260200160002060006101000a81548160ff0219169083151502179055508080600101915050610ecd565b505050565b600f81565b6000809054906101000a900473ffffffffffffffffffffffffffffffffffffffff1681565b635b9ce63081565b60008060009054906101000a900473ffffffffffffffffffffffffffffffffffffffff1673ffffffffffffffffffffffffffffffffffffffff163373ffffffffffffffffffffffffffffffffffffffff16141515610ffb57600080fd5b600090505b8282905081101561109a57600060076000858585818110151561101f57fe5b9050602002013573ffffffffffffffffffffffffffffffffffffffff1673ffffffffffffffffffffffffffffffffffffffff1673ffffffffffffffffffffffffffffffffffffffff16815260200190815260200160002060006101000a81548160ff0219169083151502179055508080600101915050611000565b505050565b60025481565b60035481565b635c0269b081565b635b8a713081565b670de0b6b3a764000081565b6000809054906101000a900473ffffffffffffffffffffffffffffffffffffffff1673ffffffffffffffffffffffffffffffffffffffff163373ffffffffffffffffffffffffffffffffffffffff1614151561112257600080fd5b61112b816114ac565b50565b67016345785d8a000081565b60008060009054906101000a900473ffffffffffffffffffffffffffffffffffffffff1673ffffffffffffffffffffffffffffffffffffffff163373ffffffffffffffffffffffffffffffffffffffff1614151561119757600080fd5b635c523a80421115156111a957600080fd5b600960009054906101000a900473ffffffffffffffffffffffffffffffffffffffff1673ffffffffffffffffffffffffffffffffffffffff166370a08231306040518263ffffffff167c0100000000000000000000000000000000000000000000000000000000028152600401808273ffffffffffffffffffffffffffffffffffffffff1673ffffffffffffffffffffffffffffffffffffffff168152602001915050602060405180830381600087803b15801561126657600080fd5b505af115801561127a573d6000803e3d6000fd5b505050506040513d602081101561129057600080fd5b81019080805190602001909291905050509050600960009054906101000a900473ffffffffffffffffffffffffffffffffffffffff1673ffffffffffffffffffffffffffffffffffffffff1663a9059cbb6000809054906101000a900473ffffffffffffffffffffffffffffffffffffffff16836040518363ffffffff167c0100000000000000000000000000000000000000000000000000000000028152600401808373ffffffffffffffffffffffffffffffffffffffff1673ffffffffffffffffffffffffffffffffffffffff16815260200182815260200192505050600060405180830381600087803b15801561138957600080fd5b505af115801561139d573d6000803e3d6000fd5b5050505050565b60055481565b600960009054906101000a900473ffffffffffffffffffffffffffffffffffffffff1681565b60015481565b6000808314156113e95760009050611408565b81830290508183828115156113fa57fe5b0414151561140457fe5b8090505b92915050565b600860009054906101000a900473ffffffffffffffffffffffffffffffffffffffff1673ffffffffffffffffffffffffffffffffffffffff166108fc3073ffffffffffffffffffffffffffffffffffffffff16319081150290604051600060405180830381858888f1935050505015801561148d573d6000803e3d6000fd5b50565b600081830190508281101515156114a357fe5b80905092915050565b600073ffffffffffffffffffffffffffffffffffffffff168173ffffffffffffffffffffffffffffffffffffffff16141515156114e857600080fd5b8073ffffffffffffffffffffffffffffffffffffffff166000809054906101000a900473ffffffffffffffffffffffffffffffffffffffff1673ffffffffffffffffffffffffffffffffffffffff167f8be0079c531659141344cd1fd0a4f28419497f9722a3daafe3b4186f6b6457e060405160405180910390a3806000806101000a81548173ffffffffffffffffffffffffffffffffffffffff021916908373ffffffffffffffffffffffffffffffffffffffff160217905550505600a165627a7a72305820dbfb1d2b66d2eaefdc441d574bb8a1ba6cf520621efc00574f26d00b7f8020ac0029",
  "source": "pragma solidity ^0.4.24;\n\nimport \"zeppelin-solidity/contracts/token/ERC20/ERC20Basic.sol\";\nimport \"zeppelin-solidity/contracts/ownership/Ownable.sol\";\nimport \"zeppelin-solidity/contracts/math/SafeMath.sol\";\n\n\n\n/**\n * @title abstract MobuToken contract\n * @dev Simpler version of MobuToken\n */\ncontract MobuToken {\n  function transfer(address, uint) public;\n  function balanceOf(address) public view returns (uint);\n}\n\n/**\n * @title MobuCrowdsale contract\n * @dev This contract includes preICO and ICO parts\n */\n contract MobuCrowdsale is Ownable {\n\n  using SafeMath for uint;\n\n  //constants\n  uint constant DECIMALS = 18;\n  uint public constant PRE_ICO_START = 1535799600;\n  uint public constant PRE_ICO_FINISH = 1537009200;\n  uint public constant PRE_ICO_MIN_INVEST = 1 ether;\n\n  uint public constant ICO_START = 1543662000;\n  uint public constant ICO_FINISH = 1548892800; \n  uint public constant ICO_MIN_INVEST = 0.1 ether;\n\n  //events\n  event OnSuccessfullyBought(address indexed contributor, uint indexed etherValue, uint tokenValue);\n  event OnRateChange(uint newRate);\n  event Refund(address indexed contributor, uint etherValue);\n\n  //global variables\n  uint public icoMinCap; //ether\n  uint public icoMaxCap; //ether\n\n  uint public ethCollected; //ether\n  uint public usdCollected; //usd\n\n  uint public currentRate; \n  uint public constant tokenPrice = 15; //0.15 USD\n\n  mapping (address => uint) public contributors;\n\n  mapping (address => bool) public whiteList;\n\n  function addToWhiteList (address[] addresses) external onlyOwner {\n    for (uint i = 0; i < addresses.length; i++){\n      whiteList[addresses[i]] = true;\n    }\n  }\n\n  function removeFromWhiteList (address[] addresses) external onlyOwner {\n    for (uint i = 0; i < addresses.length; i++){\n      whiteList[addresses[i]] = false;\n    }\n  }\n  \n  address public distributionAddress;\n\n  // Token contract address\n  MobuToken public token;\n\n  // Constructor\n  constructor (address _tokenAddress, address _distributionAddress) public payable{\n    token = MobuToken(_tokenAddress);\n    \n    currentRate = 48160; //$481.60\n    icoMinCap = uint(1000000)/currentRate;\n    icoMaxCap = uint(35000000)/currentRate;\n\n    distributionAddress = _distributionAddress;\n  }\n\n\n  function () public payable {\n    require (isActive(now));\n    require (buy(msg.sender, msg.value, now));\n  }\n\n  function buy (address _address, uint _value, uint _time) private returns (bool) {\n\n    uint tokens = _value.mul(currentRate)/tokenPrice;\n\n    if (isPreIco(_time)){\n        require (_value >= PRE_ICO_MIN_INVEST);\n        forwardFunds();\n    }\n\n    if (isIco(_time)){\n        require (_value >= ICO_MIN_INVEST);\n        \n        ethCollected = ethCollected.add(_value);\n        usdCollected = ethCollected/currentRate;\n\n        contributors[_address] = contributors[_address].add(_value);\n\n        if (ethCollected >= icoMinCap){\n            forwardFunds();\n        }\n    }\n\n    token.transfer(_address, tokens);\n\n    emit OnSuccessfullyBought(_address, _value, tokens);\n\n    return true;\n  }\n\n  function isActive(uint _time) public view returns (bool){\n    if (_time == 0){\n        _time = now;\n    }\n\n    if ((PRE_ICO_START < _time && _time <= PRE_ICO_FINISH) ||\n        ICO_START < _time && _time <= ICO_FINISH){\n        return true;\n    }\n\n    return false;\n  }\n\n  function isPreIco(uint _time) public view returns (bool){\n    if (_time == 0){\n        _time = now;\n    }\n\n    if (PRE_ICO_START < _time && _time <= PRE_ICO_FINISH){\n        return true;\n    }\n    return false;\n  }\n\n  function isIco(uint _time) public view returns (bool){\n    if (_time == 0){\n        _time = now;\n    }\n    if (ICO_START < _time && _time <= ICO_FINISH){\n        return true;\n    }\n    return false;\n  }\n\n  function forwardFunds() private {\n    distributionAddress.transfer(address(this).balance);\n  }\n\n\n  function setCurrentRate(uint _rate) public onlyOwner {\n    currentRate = _rate;\n    icoMinCap = uint(1000000)/_rate;\n    icoMaxCap = uint(35000000)/_rate;\n    emit OnRateChange(_rate);\n  }\n\n  function refund () public {\n    require (now > ICO_FINISH);\n    require (ethCollected < icoMinCap);\n    require (contributors[msg.sender] > 0);\n\n    uint buffer = contributors[msg.sender];\n    contributors[msg.sender] = 0;\n    msg.sender.transfer(buffer);\n\n    emit Refund(msg.sender, buffer);\n  }\n\n  function returnTokens () public onlyOwner {\n    require (now > ICO_FINISH);\n\n    uint _tokens = token.balanceOf(address(this));\n    token.transfer(owner, _tokens);\n  }\n\n}",
  "sourcePath": "/Users/romuch/Desktop/Mobu/Mobu/contracts/MobuCrowdsale.sol",
  "compiler": {
    "name": "solc",
    "version": "0.4.24+commit.e67f0147.Emscripten.clang"
  },
  "schemaVersion": "2.0.1",
  "updatedAt": "2018-07-23T14:36:15.617Z"
}